{
  "contractName": "Blockchain",
  "abi": [
    {
      "constant": true,
      "inputs": [],
      "name": "totalPatient",
      "outputs": [
        {
          "name": "",
          "type": "uint256"
        }
      ],
      "payable": false,
      "stateMutability": "view",
      "type": "function",
      "signature": "0x92c2808f"
    },
    {
      "constant": true,
      "inputs": [
        {
          "name": "",
          "type": "uint256"
        }
      ],
      "name": "patientList",
      "outputs": [
        {
          "name": "id",
          "type": "uint256"
        },
        {
          "name": "name",
          "type": "string"
        },
        {
          "name": "timeStarted",
          "type": "uint256"
        },
        {
          "name": "coinEarned",
          "type": "uint256"
        },
        {
          "name": "calledByDoctor",
          "type": "bool"
        }
      ],
      "payable": false,
      "stateMutability": "view",
      "type": "function",
      "signature": "0xbabb1d41"
    },
    {
      "anonymous": false,
      "inputs": [
        {
          "indexed": false,
          "name": "id",
          "type": "uint256"
        },
        {
          "indexed": false,
          "name": "name",
          "type": "string"
        },
        {
          "indexed": false,
          "name": "timeStarted",
          "type": "uint256"
        },
        {
          "indexed": false,
          "name": "coinEarned",
          "type": "uint256"
        },
        {
          "indexed": false,
          "name": "calledByDoctor",
          "type": "bool"
        }
      ],
      "name": "newPatientAdded",
      "type": "event",
      "signature": "0xf3c670a6e3a0b17b2644a8f6ac93a854c5186afc6aa9a83be1856a8592b715a2"
    },
    {
      "anonymous": false,
      "inputs": [
        {
          "indexed": false,
          "name": "id",
          "type": "uint256"
        },
        {
          "indexed": false,
          "name": "visited",
          "type": "bool"
        }
      ],
      "name": "patientVisited",
      "type": "event",
      "signature": "0xa2567168641621c85a63d9d8498a59f308c2b8b5e7bbb105d41bafb25eeff1cc"
    },
    {
      "constant": false,
      "inputs": [
        {
          "name": "_patientName",
          "type": "string"
        }
      ],
      "name": "newPatient",
      "outputs": [],
      "payable": false,
      "stateMutability": "nonpayable",
      "type": "function",
      "signature": "0x230aac0a"
    },
    {
      "constant": false,
      "inputs": [
        {
          "name": "_id",
          "type": "uint256"
        }
      ],
      "name": "patientVisit",
      "outputs": [],
      "payable": false,
      "stateMutability": "nonpayable",
      "type": "function",
      "signature": "0xb996cfa4"
    }
  ],
  "bytecode": "0x60806040526000805534801561001457600080fd5b506106d2806100246000396000f3fe6080604052600436106100615763ffffffff7c0100000000000000000000000000000000000000000000000000000000600035041663230aac0a811461006657806392c2808f1461011b578063b996cfa414610142578063babb1d411461016c575b600080fd5b34801561007257600080fd5b506101196004803603602081101561008957600080fd5b8101906020810181356401000000008111156100a457600080fd5b8201836020820111156100b657600080fd5b803590602001918460018302840111640100000000831117156100d857600080fd5b91908080601f01602080910402602001604051908101604052809392919081815260200183838082843760009201919091525092955061022e945050505050565b005b34801561012757600080fd5b50610130610383565b60408051918252519081900360200190f35b34801561014e57600080fd5b506101196004803603602081101561016557600080fd5b5035610389565b34801561017857600080fd5b506101966004803603602081101561018f57600080fd5b503561051c565b604051808681526020018060200185815260200184815260200183151515158152602001828103825286818151815260200191508051906020019080838360005b838110156101ef5781810151838201526020016101d7565b50505050905090810190601f16801561021c5780820380516001836020036101000a031916815260200191505b50965050505050505060405180910390f35b6000805460019081018083556040805160a0810182528281526020808201878152428385015260608301879052608083018790529386528481529190942084518155915180519293610288939085019291909101906105d9565b50604082015181600201556060820151816003015560808201518160040160006101000a81548160ff0219169083151502179055509050507ff3c670a6e3a0b17b2644a8f6ac93a854c5186afc6aa9a83be1856a8592b715a26000548242600080604051808681526020018060200185815260200184815260200183151515158152602001828103825286818151815260200191508051906020019080838360005b8381101561034257818101518382015260200161032a565b50505050905090810190601f16801561036f5780820380516001836020036101000a031916815260200191505b50965050505050505060405180910390a150565b60005481565b610391610657565b600082815260016020818152604092839020835160a0810185528154815281840180548651600296821615610100026000190190911695909504601f8101859004850286018501909652858552909491938584019390929083018282801561043a5780601f1061040f5761010080835404028352916020019161043a565b820191906000526020600020905b81548152906001019060200180831161041d57829003601f168201915b50505091835250506002820154602080830191909152600383015460408084019190915260049093015460ff1615156060909201919091526080830180511590526000858152600180835292902083518155838201518051949550859491936104a993908501929101906105d9565b506040828101516002830155606083015160038301556080928301516004909201805460ff191692151592909217909155908201518151848152901515602082015281517fa2567168641621c85a63d9d8498a59f308c2b8b5e7bbb105d41bafb25eeff1cc929181900390910190a15050565b600160208181526000928352604092839020805481840180548651600296821615610100026000190190911695909504601f810185900485028601850190965285855290949193929091908301828280156105b85780601f1061058d576101008083540402835291602001916105b8565b820191906000526020600020905b81548152906001019060200180831161059b57829003601f168201915b50505050600283015460038401546004909401549293909290915060ff1685565b828054600181600116156101000203166002900490600052602060002090601f016020900481019282601f1061061a57805160ff1916838001178555610647565b82800160010185558215610647579182015b8281111561064757825182559160200191906001019061062c565b50610653929150610689565b5090565b60a060405190810160405280600081526020016060815260200160008152602001600081526020016000151581525090565b6106a391905b80821115610653576000815560010161068f565b9056fea165627a7a723058206e27a7f23080354c3f20e6586cd1cc753a636832b81ae278b94eaca35b7949f20029",
  "source": "// SPDX-License-Identifier: MIT\npragma solidity >=0.4.22 <0.9.0;\n\ncontract Blockchain{\n    uint public totalPatient = 0;\n\n    struct Patient {\n        uint id;\n        string name;\n        uint timeStarted;\n        uint coinEarned;\n        bool calledByDoctor;\n    }\n\n    mapping(uint => Patient) public patientList;\n\n    event newPatientAdded(\n        uint id,\n        string name,\n        uint timeStarted,\n        uint coinEarned,\n        bool calledByDoctor\n    );\n\n    event patientVisited(\n        uint id,\n        bool visited\n    );\n\n    // constructor() public {\n    //     //createTask(\"Check out dappuniversity.com\");\n    // }\n\n    function newPatient(string memory _patientName) public {\n        totalPatient ++;\n        patientList[totalPatient] = Patient(totalPatient, _patientName, block.timestamp, 0, false);\n        emit newPatientAdded(totalPatient, _patientName, block.timestamp, 0, false);\n    }\n\n    function patientVisit(uint _id) public {\n        Patient memory _patient = patientList[_id];\n        _patient.calledByDoctor = !_patient.calledByDoctor;\n        patientList[_id] = _patient;\n        emit patientVisited(_id, _patient.calledByDoctor);\n    }\n\n}",
  "sourcePath": "/Users/kartikeshmishra/Kartikesh/testfullstack/blockchain/contracts/Blockchain.sol",
  "compiler": {
    "name": "solc",
    "version": "0.5.0+commit.1d4f565a.Emscripten.clang"
  },
  "schemaVersion": "3.0.1",
  "updatedAt": "2022-09-25T12:50:13.794Z",
  "devdoc": {
    "methods": {}
  },
  "userdoc": {
    "methods": {}
  }
}